:100000000C942A000C9447000C9447000C94470071
:100010000C9447000C9447000C9447000C94470044
:100020000C9447000C9447000C9447000C94470034
:100030000C9447000C9447000C9447000C94470024
:100040000C9447000C9447000C9447000C94470014
:100050000C94470011241FBECFE5D8E0DEBFCDBF12
:1000600011E0A0E6B0E0ECE1F4E502C005900D92ED
:10007000A833B107D9F721E0A8E3B1E001C01D9290
:10008000AC33B207E1F70E9434280C940C2A0C948C
:100090000000CF93DF9300D00F92CDB7DEB78983F6
:1000A0006A834B838A81883008F0DBC08B81813082
:1000B00009F067C08981882F90E082309105A9F10D
:1000C000833091050CF047C0009719F00197B9F003
:1000D00042C08AE390E0FC018081482F8A81282F6A
:1000E00030E081E090E002C0880F991F2A95E2F786
:1000F000242F282B8AE390E0FC012083B2C087E301
:1001000090E0FC018081482F8A81282F30E081E037
:1001100090E002C0880F991F2A95E2F7242F282B20
:1001200087E390E0FC0120839CC084E390E0FC0125
:100130008081482F8A81282F30E081E090E002C042
:10014000880F991F2A95E2F7242F282B84E390E04B
:10015000FC01208386C081E390E0FC018081482F70
:100160008A81282F30E081E090E002C0880F991F3B
:100170002A95E2F7242F282B81E390E0FC012083CD
:1001800070C08B81882309F06BC08981882F90E033
:1001900082309105B9F1833091050CF04AC0009787
:1001A00019F00197C1F045C08AE390E0FC0180811D
:1001B000482F8A81282F30E081E090E002C0880F2C
:1001C000991F2A95E2F78095242F28238AE390E04F
:1001D000FC01208346C087E390E0FC018081482F2A
:1001E0008A81282F30E081E090E002C0880F991FBB
:1001F0002A95E2F78095242F282387E390E0FC01DD
:1002000020832FC084E390E0FC018081482F8A8105
:10021000282F30E081E090E002C0880F991F2A95D6
:10022000E2F78095242F282384E390E0FC012083CB
:1002300018C081E390E0FC018081482F8A81282F3B
:1002400030E081E090E002C0880F991F2A95E2F724
:100250008095242F282381E390E0FC01208301C0B6
:10026000000000000F900F900F90DF91CF91089544
:10027000CF93DF9300D0CDB7DEB789836A838981BE
:10028000843030F58981882F90E082309105A1F08B
:1002900083309105BCF4009719F0019739F012C032
:1002A0008AE390E02A81FC01208312C087E390E07A
:1002B0002A81FC0120830CC084E390E02A81FC01A8
:1002C000208306C081E390E02A81FC0120830000A6
:1002D00000000F900F90DF91CF910895CF93DF939F
:1002E00000D00F92CDB7DEB789836A834B838A81B2
:1002F000883008F0E1C08B81813021F08B81882328
:1003000009F0DBC08B81813009F067C08981882FBB
:1003100090E082309105A9F1833091050CF047C03F
:10032000009719F00197B9F042C08BE390E0FC010F
:100330008081482F8A81282F30E081E090E002C040
:10034000880F991F2A95E2F7242F282B8BE390E042
:10035000FC012083B2C088E390E0FC018081482F3B
:100360008A81282F30E081E090E002C0880F991F39
:100370002A95E2F7242F282B88E390E0FC012083C4
:100380009CC085E390E0FC018081482F8A81282F62
:1003900030E081E090E002C0880F991F2A95E2F7D3
:1003A000242F282B85E390E0FC01208386C082E384
:1003B00090E0FC018081482F8A81282F30E081E085
:1003C00090E002C0880F991F2A95E2F7242F282B6E
:1003D00082E390E0FC01208370C08B81882309F0C8
:1003E0006BC08981882F90E082309105B9F183300C
:1003F00091050CF04AC0009719F00197C1F045C073
:100400008BE390E0FC018081482F8A81282F30E027
:1004100081E090E002C0880F991F2A95E2F780954D
:10042000242F28238BE390E0FC01208346C088E33F
:1004300090E0FC018081482F8A81282F30E081E004
:1004400090E002C0880F991F2A95E2F78095242F2B
:10045000282388E390E0FC0120832FC085E390E00F
:10046000FC018081482F8A81282F30E081E090E0D4
:1004700002C0880F991F2A95E2F78095242F282320
:1004800085E390E0FC01208318C082E390E0FC014A
:100490008081482F8A81282F30E081E090E002C0DF
:1004A000880F991F2A95E2F78095242F282382E34D
:1004B00090E0FC01208301C0000000000F900F902D
:1004C0000F90DF91CF910895CF93DF9300D0CDB7F8
:1004D000DEB789836A838981843030F58981882FEA
:1004E00090E082309105A1F083309105BCF4009733
:1004F00019F0019739F012C08BE390E02A81FC01DA
:10050000208312C088E390E02A81FC0120830CC084
:1005100085E390E02A81FC01208306C082E390E01D
:100520002A81FC012083000000000F900F90DF91D2
:10053000CF910895CF93DF9300D0CDB7DEB78983F5
:100540006A838A81883010F080E04DC08981882FCD
:1005500090E08230910541F183309105ACF5009730
:1005600019F0019789F030C089E390E0FC018081A7
:10057000882F90E02A81222F30E002C09595879540
:100580002A95E2F781702FC086E390E0FC0180811C
:10059000882F90E02A81222F30E002C09595879520
:1005A0002A95E2F781701FC083E390E0FC0180810F
:1005B000882F90E02A81222F30E002C09595879500
:1005C0002A95E2F781700FC080E390E0FC01808102
:1005D000882F90E02A81222F30E002C095958795E0
:1005E0002A95E2F781700F900F90DF91CF910895D7
:1005F000CF93DF930F92CDB7DEB7898389818430A3
:1006000010F080E021C08981882F90E08230910530
:1006100091F083309105A4F4009719F0019731F01F
:100620000FC089E390E0FC0180810EC086E390E07A
:10063000FC01808109C083E390E0FC01808104C05B
:1006400083E390E0FC0180810F90DF91CF910895CA
:10065000CF93DF93CDB7DEB741E061E082E00E9447
:10066000490040E061E082E00E946E010000DF91FD
:10067000CF910895CF93DF93CDB7DEB741E061E02E
:1006800082E00E946E010000DF91CF910895CF9328
:10069000DF93CDB7DEB740E061E082E00E946E01FB
:1006A0000000DF91CF910895CF93DF93CDB7DEB7F0
:1006B000C454D1090FB6F894DEBF0FBECDBF41E0E0
:1006C00061E080E00E94490041E062E080E00E9439
:1006D000490080E090E0A0EAB1E48F87988BA98B75
:1006E000BA8B20E030E04AE755E46F857889898944
:1006F0009A890E945F296DA37EA38FA398A78DA1DD
:100700009EA1AFA1B8A58B8B9C8BAD8BBE8B20E03F
:1007100030E040E85FE36B897C898D899E890E9487
:100720003F2888232CF481E090E0988F8F8B54C071
:1007300020E03FEF4FE757E46B897C898D899E89E4
:100740000E945A291816D4F520E030E040E251E426
:100750006F85788989899A890E945F2969A77AA714
:100760008BA79CA789A59AA5ABA5BCA589A39AA38D
:10077000ABA3BCA369A17AA18BA19CA10E94B628BE
:100780006DA77EA78FA798ABADA5BEA5B88FAF8B81
:1007900010C080E991E09A8F898F898D9A8D019799
:1007A000F1F79A8F898F00008F89988D0197988F24
:1007B0008F8B8F89988D892B61F719C06B897C8904
:1007C0008D899E890E94B62869AB7AAB8BAB9CABB6
:1007D00089A99AA9988F8F8B8F89988D9C8F8B8FE1
:1007E0008B8D9C8D0197F1F79C8F8B8F000041E0E2
:1007F00063E080E00E94490041E064E080E00E9404
:10080000490041E065E080E00E94490041E066E087
:1008100080E00E94490080E090E0A0EAB1E4898392
:100820009A83AB83BC8320E030E04AE755E46981DA
:100830007A818B819C810E945F296DAB7EAB8FABEF
:1008400098AF8DA99EA9AFA9B8AD8D839E83AF83C4
:10085000B88720E030E040E85FE36D817E818F81E2
:1008600098850E943F2888232CF481E090E09A87A5
:1008700089875BC020E03FEF4FE757E46D817E81C1
:100880008F8198850E945A2918160CF03CC020E0F0
:1008900030E040E251E469817A818B819C810E9441
:1008A0005F2969AF7AAF8BAF9CAF89AD9AADABAD25
:1008B000BCAD8D8F9E8FAF8FB8A36D8D7E8D8F8DCC
:1008C00098A10E94B62821966CAF7DAF8EAF9FAFE6
:1008D0002197ADADBEADBA87A98710C080E991E080
:1008E0009C878B878B859C850197F1F79C878B87ED
:1008F000000089859A8501979A87898789859A85D5
:10090000892B61F71DC06D817E818F8198850E9442
:10091000B62825966CAF7DAF8EAF9FAF25972396F7
:100920008EAD9FAD23979A87898789859A859E8703
:100930008D878D859E850197F1F79E878D870000B5
:1009400083E30E94BA0482E30E94BA0488E20E9410
:10095000BA048CE00E94BA0481E00E94BA0400004C
:10096000CC5BDF4F0FB6F894DEBF0FBECDBFDF917B
:10097000CF9108950F931F93CF93DF93CDB7DEB739
:10098000CD5AD1400FB6F894DEBF0FBECDBF9E0149
:1009900023543F4FD9018C9340E061E080E00E94F6
:1009A0006E019E0123563F4F80E090E0A0E8BFE338
:1009B000F90180839183A283B3838E010F551F4F6A
:1009C000CE0183569F4F2BEA3AEA4AEA50E4DC0113
:1009D0006D917D918D919C910E945F29C652DF4F50
:1009E000688379838A839B83CA5DD040C652DF4F78
:1009F00088819981AA81BB81CA5DD040F80180833A
:100A00009183A283B3838E010B551F4FCE01835672
:100A10009F4F20E030E040E850E4DC016D917D9193
:100A20008D919C910E945F29C252DF4F6883798328
:100A30008A839B83CE5DD040C252DF4F88819981EB
:100A4000AA81BB81CE5DD040F80180839183A283CF
:100A5000B383CE018F559F4F20E030E040E85FE345
:100A6000DC016D917D918D919C910E943F2888239E
:100A70003CF4CE0187559F4F21E0FC0120839AC1B1
:100A8000CE018B559F4F20E03FEF4FE757E4DC014D
:100A90006D917D918D919C910E945A2918160CF0B0
:100AA00023C1CE0183569F4F20E030E04AE754E453
:100AB000FC0160817181828193810E944428CE5122
:100AC000DF4F688379838A839B83C25ED040CE5197
:100AD000DF4F88819981AA81BB81C25ED0409E018F
:100AE00026553F4FF90180839183A283B3838E0102
:100AF00002551F4FCE0186559F4F20E030E04AE758
:100B000055E4DC016D917D918D919C910E945F294E
:100B1000CA51DF4F688379838A839B83C65ED04046
:100B2000CA51DF4F88819981AA81BB81C65ED040BE
:100B3000F80180839183A283B383CE0182559F4FB6
:100B400020E030E040E85FE3DC016D917D918D9124
:100B50009C910E943F2888234CF4CE018E549F4FD5
:100B600021E030E0FC0131832083A2C0CE01825518
:100B70009F4F20E03FEF4FE757E4DC016D917D91FF
:100B80008D919C910E945A2918160CF073C0CE01C9
:100B900086559F4F20E030E040E251E4FC01608147
:100BA0007181828193810E945F29C651DF4F6883E2
:100BB00079838A839B83CA5ED040C651DF4F888188
:100BC0009981AA81BB81CA5ED040CA52DF4F888317
:100BD0009983AA83BB83C65DD0408E010E541F4FFC
:100BE000CA52DF4F688179818A819B81C65DD0407E
:100BF0000E94B628C251DF4F688379838A839B8322
:100C0000CE5ED040C251DF4FE881F981CE5ED04048
:100C1000D801ED93FC9325C0CE018C549F4F20E961
:100C200031E0DC012D933C93CE018C549F4FFC01AD
:100C3000808191810197F1F79E012C543F4FD9019A
:100C40008D939C930000CE018E549F4F9E012E5495
:100C50003F4FF9012081318121503109DC012D9371
:100C60003C93CE018E549F4FFC0180819181892B52
:100C700099F639C08E010E541F4FCE0182559F4FF9
:100C8000DC016D917D918D919C910E94B628CE5092
:100C9000DF4F688379838A839B83C25FD040CE50C5
:100CA000DF4F88819981C25FD040F80191838083B2
:100CB000CE018A549F4F9E012E543F4FD9012D9152
:100CC0003C91FC0131832083CE018A549F4FDC018B
:100CD0008D919C910197F1F79E012A543F4FF901A4
:100CE0009183808300007EC0CE018F559F4F20E00E
:100CF00030E04FE753E4DC016D917D918D919C9143
:100D00000E945A291816D4F58E0108541F4FCE019F
:100D10008B559F4FFC0160817181828193810E947C
:100D2000B628CA50DF4F688379838A839B83C65F66
:100D3000D040CA50DF4FE881F981C65FD040D8016A
:100D4000ED93FC93CE0186549F4F9E0128543F4F54
:100D5000D9012D913C91FC0131832083CE01865431
:100D60009F4FDC018D919C910197F1F79E012654D4
:100D70003F4FF90191838083000034C08E010755F5
:100D80001F4FCE018F559F4FDC016D917D918D914D
:100D90009C910E94B628C650DF4F688379838A836E
:100DA0009B83CA5FD040C650DF4F8881CA5FD04066
:100DB000F8018083CE0184549F4F9E0127553F4FF9
:100DC000D9012C91FC012083CE0184549F4FDC017A
:100DD0008C91282F2A95F1F7CE0184549F4FFC0166
:100DE0002083000041E062E080E00E946E019E01ED
:100DF00023583F4F80E090E0A0E8BFE3F9018083F3
:100E00009183A283B3838E010F571F4FCE01835866
:100E10009F4F2BEA3AEA4AEA50E4DC016D917D915A
:100E20008D919C910E945F29C250DF4F6883798326
:100E30008A839B83CE5FD040C250DF4F88819981E7
:100E4000AA81BB81CE5FD040F80180839183A283C9
:100E5000B3838E010B571F4FCE0183589F4F20E065
:100E600030E040E850E4DC016D917D918D919C91E2
:100E70000E945F29CE5FDE4F688379838A839B83DC
:100E8000C250D140CE5FDE4F88819981AA81BB815B
:100E9000C250D140F80180839183A283B383CE01F5
:100EA0008F579F4F20E030E040E85FE3DC016D9119
:100EB0007D918D919C910E943F2888233CF4CE0126
:100EC00087579F4F21E0FC0120839AC1CE018B57A9
:100ED0009F4F20E03FEF4FE757E4DC016D917D919C
:100EE0008D919C910E945A2918160CF023C1CE01B5
:100EF00083589F4F20E030E04AE754E4FC016081D2
:100F00007181828193810E944428CA5FDE4F688389
:100F100079838A839B83C650D140CA5FDE4F888124
:100F20009981AA81BB81C650D1409E0126573F4F6F
:100F3000F90180839183A283B3838E0102571F4FEF
:100F4000CE0186579F4F20E030E04AE755E4DC01B0
:100F50006D917D918D919C910E945F29C65FDE4FBE
:100F6000688379838A839B83CA50D140C65FDE4FF2
:100F700088819981AA81BB81CA50D140F8018083C0
:100F80009183A283B383CE0182579F4F20E030E04C
:100F900040E85FE3DC016D917D918D919C910E9411
:100FA0003F2888234CF4CE018E569F4F21E030E03D
:100FB000FC0131832083A2C0CE0182579F4F20E0E5
:100FC0003FEF4FE757E4DC016D917D918D919C914E
:100FD0000E945A2918160CF073C0CE0186579F4FF5
:100FE00020E030E040E251E4FC01608171818281C7
:100FF00093810E945F29C25FDE4F688379838A8371
:101000009B83CE50D140C25FDE4F88819981AA81F7
:10101000BB81CE50D140CE52DF4F88839983AA83C3
:10102000BB83C25DD0408E010E561F4FCE52DF4FA4
:10103000688179818A819B81C25DD0400E94B628F7
:10104000CE5EDE4F688379838A839B83C251D14011
:10105000CE5EDE4FE881F981C251D140D801ED93D7
:10106000FC9325C0CE018C569F4F20E931E0DC0176
:101070002D933C93CE018C569F4FFC018081918132
:101080000197F1F79E012C563F4FD9018D939C9308
:101090000000CE018E569F4F9E012E563F4FF90104
:1010A0002081318121503109DC012D933C93CE0107
:1010B0008E569F4FFC0180819181892B99F639C012
:1010C0008E010E561F4FCE0182579F4FDC016D914E
:1010D0007D918D919C910E94B628CA5EDE4F6883F7
:1010E00079838A839B83C651D140CA5EDE4F888153
:1010F0009981C651D140F80191838083CE018A56EF
:101100009F4F9E012E563F4FD9012D913C91FC01DE
:1011100031832083CE018A569F4FDC018D919C91B3
:101120000197F1F79E012A563F4FF9019183808381
:1011300000007EC0CE018F579F4F20E030E04FE788
:1011400053E4DC016D917D918D919C910E945A290F
:101150001816D4F58E0108561F4FCE018B579F4F9E
:10116000FC0160817181828193810E94B628C65EF4
:10117000DE4F688379838A839B83CA51D140C65EE0
:10118000DE4FE881F981CA51D140D801ED93FC933B
:10119000CE0186569F4F9E0128563F4FD9012D9173
:1011A0003C91FC0131832083CE0186569F4FDC01A8
:1011B0008D919C910197F1F79E0126563F4FF901C1
:1011C00091838083000034C08E0107571F4FCE01EA
:1011D0008F579F4FDC016D917D918D919C910E9465
:1011E000B628C25EDE4F688379838A839B83CE51A3
:1011F000D140C25EDE4F8881CE51D140F80180835C
:10120000CE0184569F4F9E0127573F4FD9012C9105
:10121000FC012083CE0184569F4FDC018C91282F46
:101220002A95F1F7CE0184569F4FFC0120830000E0
:10123000CE0183549F4FDC018C9182958F70817019
:10124000482F63E080E00E946E01CE0183549F4FDF
:10125000FC0180818295869587708170482F64E0BB
:1012600080E00E946E01CE0183549F4FDC018C917F
:1012700082958695869583708170482F65E080E021
:101280000E946E01CE0183549F4FFC018081881F14
:101290008827881F482F66E080E00E946E019E012B
:1012A00021593F4F80E090E0A0E8BFE3F90180833F
:1012B0009183A283B3838E010D581F4FCE018159B4
:1012C0009F4F20E030E04AE755E4DC016D917D91CD
:1012D0008D919C910E945F29CE5DDE4F688379835A
:1012E0008A839B83C252D140CE5DDE4F8881998133
:1012F000AA81BB81C252D140F80180839183A2832D
:10130000B383CE018D589F4F20E030E040E85FE38B
:10131000DC016D917D918D919C910E943F288823E5
:101320004CF4CE0189589F4F21E030E0FC0131831D
:101330002083A2C0CE018D589F4F20E03FEF4FE7A2
:1013400057E4DC016D917D918D919C910E945A2909
:1013500018160CF073C0CE0181599F4F20E030E089
:1013600040E251E4FC0160817181828193810E949D
:101370005F29CA5DDE4F688379838A839B83C65267
:10138000D140CA5DDE4F88819981AA81BB81C65256
:10139000D140C253DF4F88839983AA83BB83CE5C3D
:1013A000D0408E0109581F4FC253DF4F68817981A9
:1013B0008A819B81CE5CD0400E94B628C65DDE4FFC
:1013C000688379838A839B83CA52D140C65DDE4F8E
:1013D000E881F981CA52D140D801ED93FC9325C030
:1013E000CE0187589F4F20E931E0DC012D933C93DB
:1013F000CE0187589F4FFC01808191810197F1F7C1
:101400009E0127583F4FD9018D939C930000CE0138
:1014100089589F4F9E0129583F4FF9012081318102
:1014200021503109DC012D933C93CE0189589F4F07
:10143000FC0180819181892B99F639C08E01095870
:101440001F4FCE018D589F4FDC016D917D918D9185
:101450009C910E94B628C25DDE4F688379838A839F
:101460009B83CE52D140C25DDE4F88819981CE529E
:10147000D140F80191838083CE0185589F4F9E0112
:1014800029583F4FD9012D913C91FC013183208394
:10149000CE0185589F4FDC018D919C910197F1F70A
:1014A0009E0125583F4FF90191838083000040E061
:1014B00062E080E00E946E019E01215B3F4F80E070
:1014C00090E0A0E8BFE3F90180839183A283B38316
:1014D0008E010D5A1F4FCE01815B9F4F2BEA3AEAD6
:1014E0004AEA50E4DC016D917D918D919C910E94BE
:1014F0005F29CE5CDE4F688379838A839B83C253E6
:10150000D140CE5CDE4F88819981AA81BB81C253D4
:10151000D140F80180839183A283B3838E01095A5D
:101520001F4FCE01815B9F4F20E030E040E850E448
:10153000DC016D917D918D919C910E945F29CA5C27
:10154000DE4F688379838A839B83C653D140CA5C0C
:10155000DE4F88819981AA81BB81C653D140F801B1
:1015600080839183A283B383CE018D5A9F4F20E065
:1015700030E040E85FE3DC016D917D918D919C91BD
:101580000E943F2888233CF4CE01855A9F4F21E0DA
:10159000FC0120839AC1CE01895A9F4F20E03FEF82
:1015A0004FE757E4DC016D917D918D919C910E94F4
:1015B0005A2918160CF023C1CE01815B9F4F20E001
:1015C00030E04AE754E4FC016081718182819381BB
:1015D0000E944428C65CDE4F688379838A839B839C
:1015E000CA53D140C65CDE4F88819981AA81BB81F4
:1015F000CA53D1409E01245A3F4FF9018083918301
:10160000A283B3838E01005A1F4FCE01845A9F4F8D
:1016100020E030E04AE755E4DC016D917D918D9149
:101620009C910E945F29C25CDE4F688379838A8324
:101630009B83CE53D140C25CDE4F88819981AA81C1
:10164000BB81CE53D140F80180839183A283B383C1
:10165000CE01805A9F4F20E030E040E85FE3DC019C
:101660006D917D918D919C910E943F2888234CF42F
:10167000CE018C599F4F21E030E0FC013183208363
:10168000A2C0CE01805A9F4F20E03FEF4FE757E4C2
:10169000DC016D917D918D919C910E945A291816C3
:1016A0000CF073C0CE01845A9F4F20E030E040E23E
:1016B00051E4FC0160817181828193810E945F29E4
:1016C000CE5BDE4F688379838A839B83C254D1408B
:1016D000CE5BDE4F88819981AA81BB81C254D14003
:1016E000C653DF4F88839983AA83BB83CA5CD040EB
:1016F0008E010C591F4FC653DF4F688179818A8153
:101700009B81CA5CD0400E94B628CA5BDE4F6883CA
:1017100079838A839B83C654D140CA5BDE4FE881BC
:10172000F981C654D140D801ED93FC9325C0CE0178
:101730008A599F4F20E931E0DC012D933C93CE0183
:101740008A599F4FFC01808191810197F1F79E0199
:101750002A593F4FD9018D939C930000CE018C599B
:101760009F4F9E012C593F4FF9012081318121501B
:101770003109DC012D933C93CE018C599F4FFC0124
:1017800080819181892B99F639C08E010C591F4FA8
:10179000CE01805A9F4FDC016D917D918D919C917E
:1017A0000E94B628C65BDE4F688379838A839B8359
:1017B000CA54D140C65BDE4F88819981CA54D1405A
:1017C000F80191838083CE0188599F4F9E012C5947
:1017D0003F4FD9012D913C91FC0131832083CE01F3
:1017E00088599F4FDC018D919C910197F1F79E01E3
:1017F00028593F4FF9019183808300007EC0CE01BC
:101800008D5A9F4F20E030E04FE753E4DC016D91AB
:101810007D918D919C910E945A291816D4F58E01C4
:1018200006591F4FCE01895A9F4FFC01608171817B
:10183000828193810E94B628C25BDE4F68837983E0
:101840008A839B83CE54D140C25BDE4FE881F9810D
:10185000CE54D140D801ED93FC93CE0184599F4FD3
:101860009E0126593F4FD9012D913C91FC013183B6
:101870002083CE0184599F4FDC018D919C9101976B
:10188000F1F79E0124593F4FF901918380830000B5
:1018900034C08E01055A1F4FCE018D5A9F4FDC0177
:1018A0006D917D918D919C910E94B628CE5ADE4F0C
:1018B000688379838A839B83C255D140CE5ADE4F99
:1018C0008881C255D140F8018083CE0182599F4F53
:1018D0009E01255A3F4FD9012C91FC012083CE0156
:1018E00082599F4FDC018C91282F2A95F1F7CE0168
:1018F00082599F4FFC012083000041E062E080E0BC
:101900000E946E0180E090E0A0E8BFE38FA798AB53
:10191000A9ABBAAB2BEA3AEA4AEA50E46FA578A938
:1019200089A99AA90E945F29CA5ADE4F68837983E0
:101930008A839B83C655D140CA5ADE4F88819981DC
:10194000AA81BB81C655D1408BAB9CABADABBEABC6
:1019500020E030E040E850E46FA578A989A99AA971
:101960000E945F29C65ADE4F688379838A839B83EE
:10197000CA55D140C65ADE4F88819981AA81BB8160
:10198000CA55D1408FAB98AFA9AFBAAF20E030E0D5
:1019900040E85FE36BA97CA98DA99EA90E943F281E
:1019A00088231CF481E08BAF76C120E03FEF4FE746
:1019B00057E46FA978AD89AD9AAD0E945A291816DF
:1019C0000CF013C120E030E04AE754E46FA578A999
:1019D00089A99AA90E944428C25ADE4F6883798354
:1019E0008A839B83CE55D140C25ADE4F888199812C
:1019F000AA81BB81CE55D1408CAF9DAFAEAFBFAFFA
:101A00008E01005C1F4F20E030E04AE755E46CADEA
:101A10007DAD8EAD9FAD0E945F29CE59DE4F6883AC
:101A200079838A839B83C256D140CE59DE4F888109
:101A30009981AA81BB81C256D140F80180839183EC
:101A4000A283B383CE01805C9F4F20E030E040E86A
:101A50005FE3DC016D917D918D919C910E943F2807
:101A600088234CF4CE018C5B9F4F21E030E0FC01D9
:101A7000318320839EC0CE01805C9F4F20E03FEFEA
:101A80004FE757E4DC016D917D918D919C910E940F
:101A90005A2918160CF06FC020E030E040E251E403
:101AA0006CAD7DAD8EAD9FAD0E945F29CA59DE4FF2
:101AB000688379838A839B83C656D140CA59DE4F97
:101AC00088819981AA81BB81C656D140CA53DF4F14
:101AD00088839983AA83BB83C65CD0408E010C5B4C
:101AE0001F4FCA53DF4F688179818A819B81C65C11
:101AF000D0400E94B628C659DE4F688379838A8316
:101B00009B83CA56D140C659DE4FE881F981CA5637
:101B1000D140D801ED93FC9325C0CE018A5B9F4F45
:101B200020E931E0DC012D933C93CE018A5B9F4F8D
:101B3000FC01808191810197F1F79E012A5B3F4F63
:101B4000D9018D939C930000CE018C5B9F4F9E0129
:101B50002C5B3F4FF9012081318121503109DC019B
:101B60002D933C93CE018C5B9F4FFC018081918132
:101B7000892B99F639C08E010C5B1F4FCE01805C1A
:101B80009F4FDC016D917D918D919C910E94B628B3
:101B9000C259DE4F688379838A839B83CE56D140B6
:101BA000C259DE4F88819981CE56D140F801918388
:101BB0008083CE01885B9F4F9E012C5B3F4FD901F4
:101BC0002D913C91FC0131832083CE01885B9F4F96
:101BD000DC018D919C910197F1F79E01285B3F4FAD
:101BE000F9019183808300006AC020E030E04FE774
:101BF00053E46BA97CA98DA99EA90E945A291816A5
:101C0000B4F58E01065B1F4F6FA978AD89AD9AAD13
:101C10000E94B628CE58DE4F688379838A839B83DF
:101C2000C257D140CE58DE4FE881F981C257D1402A
:101C3000D801ED93FC93CE01845B9F4F9E01265B00
:101C40003F4FD9012D913C91FC0131832083CE017E
:101C5000845B9F4FDC018D919C910197F1F79E0170
:101C6000245B3F4FF90191838083000028C06BA95A
:101C70007CA98DA99EA90E94B628CA58DE4F688308
:101C800079838A839B83C657D140CA58DE4FF88137
:101C9000C657D140FBAFCE01825B9F4F2BADDC011D
:101CA0002C93CE01825B9F4FFC018081282F2A95C7
:101CB000F1F7CE01825B9F4FDC012C930000CE0137
:101CC00083549F4FFC0180818170482F63E080E046
:101CD0000E946E01CE0183549F4FDC018C9186954A
:101CE0008170482F64E080E00E946E01CE01835431
:101CF0009F4FFC018081869586958170482F65E015
:101D000080E00E946E01CE0183549F4FDC018C91D4
:101D10008695869586958170482F66E080E00E94C2
:101D20006E0180E090E0A0E8BFE389A39AA3ABA393
:101D3000BCA320E030E04AE755E469A17AA18BA179
:101D40009CA10E945F29C658DE4F688379838A83ED
:101D50009B83CA57D140C658DE4F88819981AA819A
:101D6000BB81CA57D1408DA39EA3AFA3B8A720E0E3
:101D700030E040E85FE36DA17EA18FA198A50E94AD
:101D80003F2888232CF481E090E09AA789A775C0AA
:101D900020E03FEF4FE757E46DA17EA18FA198A50A
:101DA0000E945A2918160CF052C020E030E040E2A0
:101DB00051E469A17AA18BA19CA10E945F29C2581C
:101DC000DE4F688379838A839B83CE57D140C25884
:101DD000DE4F88819981AA81BB81CE57D140CE53F5
:101DE000DF4F88839983AA83BB83C25CD040CE53E4
:101DF000DF4F688179818A819B81C25CD0400E94DB
:101E0000B628CE57DE4F688379838A839B83C25876
:101E1000D140CE57DE4FA881B981C258D140BAA770
:101E2000A9A710C080E991E09CA78BA78BA59CA5D2
:101E30000197F1F79CA78BA7000089A59AA50197A8
:101E40009AA789A789A59AA5892B61F721C06DA1B9
:101E50007EA18FA198A50E94B628CA57DE4F68833D
:101E600079838A839B83C658D140CA57DE4FE88165
:101E7000F981C658D140FAA7E9A789A59AA59EA7D6
:101E80008DA78DA59EA50197F1F79EA78DA70000B0
:101E900040E062E080E00E946E0180E090E0A0E817
:101EA000BFE389839A83AB83BC832BEA3AEA4AEA8D
:101EB00050E469817A818B819C810E945F29C65799
:101EC000DE4F688379838A839B83CA58D140C65783
:101ED000DE4F88819981AA81BB81CA58D1408D8308
:101EE0009E83AF83B88720E030E040E850E469810A
:101EF0007A818B819C810E945F29C257DE4F688363
:101F000079838A839B83CE58D140C257DE4F888124
:101F10009981AA81BB81CE58D14089879A87AB87A6
:101F2000BC8720E030E040E85FE36D817E818F81F7
:101F300098850E943F2888231CF481E08D871DC16D
:101F400020E03FEF4FE757E469857A858B859C85D4
:101F50000E945A2918160CF0CEC020E030E04AE763
:101F600054E469817A818B819C810E944428CE56F9
:101F7000DE4F688379838A839B83C259D140CE56D2
:101F8000DE4F88819981AA81BB81C259D1408E8759
:101F90009F87A88BB98B20E030E04AE755E46E8537
:101FA0007F85888999890E945F29CA56DE4F688398
:101FB00079838A839B83C659D140CA56DE4F888174
:101FC0009981AA81BB81C659D1408A8B9B8BAC8BEE
:101FD000BD8B20E030E040E85FE36A897B898C8933
:101FE0009D890E943F2888232CF481E090E09F8BFC
:101FF0008E8B75C020E03FEF4FE757E46A897B89FD
:102000008C899D890E945A2918160CF052C020E034
:1020100030E040E251E46E857F85888999890E948D
:102020005F29C656DE4F688379838A839B83CA59AA
:10203000D140C656DE4F88819981AA81BB81CA5999
:10204000D140C254DF4F88839983AA83BB83CE5B80
:10205000D040C254DF4F688179818A819B81CE5BF9
:10206000D0400E94B628C256DE4F688379838A83A7
:102070009B83CE59D140C256DE4FA881B981CE593B
:10208000D140BF8BAE8B10C080E991E0998F888FD3
:10209000888D998D0197F1F7998F888F00008E892F
:1020A0009F8901979F8B8E8B8E899F89892B61F7E2
:1020B00021C06A897B898C899D890E94B628CE556A
:1020C000DE4F688379838A839B83C25AD140CE5581
:1020D000DE4FE881F981C25AD140FF8BEE8B8E89A9
:1020E0009F899B8F8A8F8A8D9B8D0197F1F79B8F9C
:1020F0008A8F000049C020E030E04FE753E46D8153
:102100007E818F8198850E945A29181614F5698559
:102110007A858B859C850E94B628CA55DE4F6883D8
:1021200079838A839B83C65AD140CA55DE4F888102
:102130009981C65AD1409D8F8C8F8C8D9D8D9F8F9C
:102140008E8F8E8D9F8D0197F1F79F8F8E8F000060
:102150001BC06D817E818F8198850E94B628C655EF
:10216000DE4F688379838A839B83CA5AD140C655E0
:10217000DE4F9881CA5AD1409D878D8588A388A15A
:102180008A95F1F788A300000000C355DE4F0FB613
:10219000F894DEBF0FBECDBFDF91CF911F910F919D
:1021A00008950F931F93CF93DF93CDB7DEB7C1563A
:1021B000D1400FB6F894DEBF0FBECDBF9E012756AB
:1021C0003F4FD9018C9341E061E080E00E946E01B5
:1021D0009E0125573F4F80E090E0A0E8BFE3F90162
:1021E00080839183A283B3838E0101571F4FCE0159
:1021F00085579F4F20E030E04AE755E4DC016D91C0
:102200007D918D919C910E945F29CA54DF4F688314
:1022100079838A839B83C65BD040CA54DF4F888111
:102220009981AA81BB81C65BD040F80180839183EC
:10223000A283B383CE0181579F4F20E030E040E876
:102240005FE3DC016D917D918D919C910E943F280F
:1022500088234CF4CE018D569F4F21E030E0FC01E5
:1022600031832083A2C0CE0181579F4F20E03FEFF2
:102270004FE757E4DC016D917D918D919C910E9417
:102280005A2918160CF073C0CE0185579F4F20E0D5
:1022900030E040E251E4FC016081718182819381F0
:1022A0000E945F29C654DF4F688379838A839B83AA
:1022B000CA5BD040C654DF4F88819981AA81BB8117
:1022C000CA5BD040CE54DF4F88839983AA83BB83F7
:1022D000C25BD0408E010D561F4FCE54DF4F688138
:1022E00079818A819B81C25BD0400E94B628C2540A
:1022F000DF4F688379838A839B83CE5BD040C2544F
:10230000DF4FE881F981CE5BD040D801ED93FC939B
:1023100025C0CE018B569F4F20E931E0DC012D9383
:102320003C93CE018B569F4FFC0180819181019798
:10233000F1F79E012B563F4FD9018D939C930000DE
:10234000CE018D569F4F9E012D563F4FF9012081A2
:10235000318121503109DC012D933C93CE018D5602
:102360009F4FFC0180819181892B99F639C08E01A4
:102370000D561F4FCE0181579F4FDC016D917D910E
:102380008D919C910E94B628CE53DF4F688379834C
:102390008A839B83C25CD040CE53DF4F8881998172
:1023A000C25CD040F80191838083CE0189569F4F53
:1023B0009E012D563F4FD9012D913C91FC01318357
:1023C0002083CE0189569F4FDC018D919C9101970E
:1023D000F1F79E0129563F4FF90191838083000058
:1023E00041E062E080E00E946E019E0123583F4F71
:1023F00080E090E0A0E8BFE3F90180839183A283AD
:10240000B3838E010F571F4FCE0183589F4F20E09B
:1024100030E04AE755E4DC016D917D918D919C910E
:102420000E945F29CA53DF4F688379838A839B8325
:10243000C65CD040CA53DF4F88819981AA81BB8195
:10244000C65CD040F80180839183A283B383CE0120
:102450008F579F4F20E030E040E85FE3DC016D9153
:102460007D918D919C910E943F2888234CF4CE0150
:102470008B579F4F21E030E0FC0131832083A2C0C5
:10248000CE018F579F4F20E03FEF4FE757E4DC012D
:102490006D917D918D919C910E945A2918160CF096
:1024A00073C0CE0183589F4F20E030E040E251E4FA
:1024B000FC0160817181828193810E945F29C653F2
:1024C000DF4F688379838A839B83CA5CD040C6537D
:1024D000DF4F88819981AA81BB81CA5CD040C255F7
:1024E000DF4F88839983AA83BB83CE5AD0408E0165
:1024F0000B571F4FC255DF4F688179818A819B81BD
:10250000CE5AD0400E94B628C253DF4F68837983E9
:102510008A839B83CE5CD040C253DF4FE881F98130
:10252000CE5CD040D801ED93FC9325C0CE018957F5
:102530009F4F20E931E0DC012D933C93CE01895778
:102540009F4FFC01808191810197F1F79E012957EE
:102550003F4FD9018D939C930000CE018B579F4F25
:102560009E012B573F4FF9012081318121503109C4
:10257000DC012D933C93CE018B579F4FFC01808152
:102580009181892B99F639C08E010B571F4FCE01CF
:102590008F579F4FDC016D917D918D919C910E9491
:1025A000B628CE52DF4F688379838A839B83C25DCE
:1025B000D040CE52DF4F88819981C25DD040F80172
:1025C00091838083CE0187579F4F9E012B573F4FAA
:1025D000D9012D913C91FC0131832083CE01875795
:1025E0009F4FDC018D919C910197F1F79E01275738
:1025F0003F4FF901918380830000CE0187569F4FA2
:10260000DC018C9182958F708170482F63E080E0AF
:102610000E946E01CE0187569F4FFC0180818295FA
:10262000869587708170482F64E080E00E946E017B
:10263000CE0187569F4FDC018C91829586958695B9
:1026400083708170482F65E080E00E946E01CE01AA
:1026500087569F4FFC018081881F8827881F482F3D
:1026600066E080E00E946E019E0121593F4F80E0AC
:1026700090E0A0E8BFE3F90180839183A283B38354
:102680008E010D581F4FCE0181599F4F20E030E041
:102690004AE755E4DC016D917D918D919C910E94FA
:1026A0005F29CA52DF4F688379838A839B83C65D23
:1026B000D040CA52DF4F88819981AA81BB81C65D13
:1026C000D040F80180839183A283B383CE018D58DB
:1026D0009F4F20E030E040E85FE3DC016D917D91A9
:1026E0008D919C910E943F2888234CF4CE018958FB
:1026F0009F4F21E030E0FC0131832083A2C0CE0156
:102700008D589F4F20E03FEF4FE757E4DC016D917C
:102710007D918D919C910E945A2918160CF073C0DE
:10272000CE0181599F4F20E030E040E251E4FC01AE
:1027300060817181828193810E945F29C652DF4F3F
:10274000688379838A839B83CA5DD040C652DF4FFA
:1027500088819981AA81BB81CA5DD040C655DF4F6F
:1027600088839983AA83BB83CA5AD0408E010958B3
:102770001F4FC655DF4F688179818A819B81CA5A74
:10278000D0400E94B628C252DF4F688379838A8383
:102790009B83CE5DD040C252DF4FE881F981CE5D90
:1027A000D040D801ED93FC9325C0CE0187589F4FB0
:1027B00020E931E0DC012D933C93CE0187589F4FF7
:1027C000FC01808191810197F1F79E0127583F4FCD
:1027D000D9018D939C930000CE0189589F4F9E0193
:1027E00029583F4FF9012081318121503109DC0105
:1027F0002D933C93CE0189589F4FFC01808191819C
:10280000892B99F639C08E0109581F4FCE018D587A
:102810009F4FDC016D917D918D919C910E94B62816
:10282000CE51DF4F688379838A839B83C25ED04019
:10283000CE51DF4F88819981C25ED040F8019183EB
:102840008083CE0185589F4F9E0129583F4FD90163
:102850002D913C91FC0131832083CE0185589F4FFF
:10286000DC018D919C910197F1F79E0125583F4F16
:10287000F90191838083000040E062E080E00E94E3
:102880006E019E01215B3F4F80E090E0A0E8BFE336
:10289000F90180839183A283B3838E010D5A1F4F68
:1028A000CE01815B9F4F2BEA3AEA4AEA50E4DC0111
:1028B0006D917D918D919C910E945F29CA51DF4F4E
:1028C000688379838A839B83C65ED040CA51DF4F79
:1028D00088819981AA81BB81C65ED040F80180833E
:1028E0009183A283B3838E01095A1F4FCE01815B6E
:1028F0009F4F20E030E040E850E4DC016D917D9195
:102900008D919C910E945F29C651DF4F6883798326
:102910008A839B83CA5ED040C651DF4F88819981EC
:10292000AA81BB81CA5ED040F80180839183A283D3
:10293000B383CE018D5A9F4F20E030E040E85FE343
:10294000DC016D917D918D919C910E943F2888239F
:102950003CF4CE01855A9F4F21E0FC0120839AC1AF
:10296000CE01895A9F4F20E03FEF4FE757E4DC014B
:102970006D917D918D919C910E945A2918160CF0B1
:1029800023C1CE01815B9F4F20E030E04AE754E451
:10299000FC0160817181828193810E944428C2512F
:1029A000DF4F688379838A839B83CE5ED040C25198
:1029B000DF4F88819981AA81BB81CE5ED0409E0184
:1029C000245A3F4FF90180839183A283B3838E0100
:1029D000005A1F4FCE01845A9F4F20E030E04AE753
:1029E00055E4DC016D917D918D919C910E945F2950
:1029F000CE50DF4F688379838A839B83C25FD04048
:102A0000CE50DF4F88819981AA81BB81C25FD040BF
:102A1000F80180839183A283B383CE01805A9F4FB4
:102A200020E030E040E85FE3DC016D917D918D9125
:102A30009C910E943F2888234CF4CE018C599F4FD3
:102A400021E030E0FC0131832083A2C0CE01805A16
:102A50009F4F20E03FEF4FE757E4DC016D917D9100
:102A60008D919C910E945A2918160CF073C0CE01CA
:102A7000845A9F4F20E030E040E251E4FC01608145
:102A80007181828193810E945F29CA50DF4F6883E0
:102A900079838A839B83C65FD040CA50DF4F888189
:102AA0009981AA81BB81C65FD040CA55DF4F888318
:102AB0009983AA83BB83C65AD0408E010C591F4FFD
:102AC000CA55DF4F688179818A819B81C65AD0407F
:102AD0000E94B628C650DF4F688379838A839B8320
:102AE000CA5FD040C650DF4FE881F981CA5FD0404D
:102AF000D801ED93FC9325C0CE018A599F4F20E960
:102B000031E0DC012D933C93CE018A599F4FFC01AB
:102B1000808191810197F1F79E012A593F4FD90198
:102B20008D939C930000CE018C599F4F9E012C5990
:102B30003F4FF9012081318121503109DC012D9372
:102B40003C93CE018C599F4FFC0180819181892B50
:102B500099F639C08E010C591F4FCE01805A9F4FF4
:102B6000DC016D917D918D919C910E94B628C2509F
:102B7000DF4F688379838A839B83CE5FD040C250C6
:102B8000DF4F88819981CE5FD040F80191838083A7
:102B9000CE0188599F4F9E012C593F4FD9012D914D
:102BA0003C91FC0131832083CE0188599F4FDC0189
:102BB0008D919C910197F1F79E0128593F4FF901A2
:102BC0009183808300007EC0CE018D5A9F4F20E00C
:102BD00030E04FE753E4DC016D917D918D919C9144
:102BE0000E945A291816D4F58E0106591F4FCE019E
:102BF000895A9F4FFC0160817181828193810E947B
:102C0000B628CE5FDE4F688379838A839B83C25068
:102C1000D140CE5FDE4FE881F981C250D140D8016A
:102C2000ED93FC93CE0184599F4F9E0126593F4F4F
:102C3000D9012D913C91FC0131832083CE0184592F
:102C40009F4FDC018D919C910197F1F79E012459D2
:102C50003F4FF90191838083000034C08E01055AF3
:102C60001F4FCE018D5A9F4FDC016D917D918D914B
:102C70009C910E94B628CA5FDE4F688379838A835D
:102C80009B83C650D140CA5FDE4F8881C650D14079
:102C9000F8018083CE0182599F4F9E01255A3F4FF4
:102CA000D9012C91FC012083CE0182599F4FDC0178
:102CB0008C91282F2A95F1F7CE0182599F4FFC0164
:102CC0002083000041E062E080E00E946E0180E02D
:102CD00090E0A0E8BFE38FA798ABA9ABBAAB2BEA13
:102CE0003AEA4AEA50E46FA578A989A99AA90E940C
:102CF0005F29C65FDE4F688379838A839B83CA50CE
:102D0000D140C65FDE4F88819981AA81BB81CA50BC
:102D1000D1408BAB9CABADABBEAB20E030E040E82C
:102D200050E46FA578A989A99AA90E945F29C25F7A
:102D3000DE4F688379838A839B83CE50D140C25F04
:102D4000DE4F88819981AA81BB81CE50D1408FAB63
:102D500098AFA9AFBAAF20E030E040E85FE36BA9DD
:102D60007CA98DA99EA90E943F2888231CF481E09C
:102D70008BAF76C120E03FEF4FE757E46FA978AD06
:102D800089AD9AAD0E945A2918160CF013C120E0A3
:102D900030E04AE754E46FA578A989A99AA90E946E
:102DA0004428CE5EDE4F688379838A839B83C25139
:102DB000D140CE5EDE4F88819981AA81BB81C2510C
:102DC000D1408CAF9DAFAEAFBFAF8E01005C1F4F47
:102DD00020E030E04AE755E46CAD7DAD8EAD9FADAF
:102DE0000E945F29CA5EDE4F688379838A839B8352
:102DF000C651D140CA5EDE4F88819981AA81BB81CC
:102E0000C651D140F80180839183A283B383CE0160
:102E1000805C9F4F20E030E040E85FE3DC016D9193
:102E20007D918D919C910E943F2888234CF4CE0186
:102E30008C5B9F4F21E030E0FC01318320839EC0FA
:102E4000CE01805C9F4F20E03FEF4FE757E4DC016D
:102E50006D917D918D919C910E945A2918160CF0CC
:102E60006FC020E030E040E251E46CAD7DAD8EAD4E
:102E70009FAD0E945F29C65EDE4F688379838A8397
:102E80009B83CA51D140C65EDE4F88819981AA8159
:102E9000BB81CA51D140CE55DF4F88839983AA8325
:102EA000BB83C25AD0408E010C5B1F4FCE55DF4F03
:102EB000688179818A819B81C25AD0400E94B6285C
:102EC000C25EDE4F688379838A839B83CE51D14073
:102ED000C25EDE4FE881F981CE51D140D801ED9339
:102EE000FC9325C0CE018A5B9F4F20E931E0DC01D5
:102EF0002D933C93CE018A5B9F4FFC018081918191
:102F00000197F1F79E012A5B3F4FD9018D939C9366
:102F10000000CE018C5B9F4F9E012C5B3F4FF9015F
:102F20002081318121503109DC012D933C93CE0168
:102F30008C5B9F4FFC0180819181892B99F639C070
:102F40008E010C5B1F4FCE01805C9F4FDC016D91A9
:102F50007D918D919C910E94B628CE5DDE4F688355
:102F600079838A839B83C252D140CE5DDE4F8881B4
:102F70009981C252D140F80191838083CE01885B50
:102F80009F4F9E012C5B3F4FD9012D913C91FC013D
:102F900031832083CE01885B9F4FDC018D919C9112
:102FA0000197F1F79E01285B3F4FF90191838083E0
:102FB00000006AC020E030E04FE753E46BA97CA931
:102FC0008DA99EA90E945A291816B4F58E01065B98
:102FD0001F4F6FA978AD89AD9AAD0E94B628CA5D22
:102FE000DE4F688379838A839B83C652D140CA5D52
:102FF000DE4FE881F981C652D140D801ED93FC93B0
:10300000CE01845B9F4F9E01265B3F4FD9012D91DE
:103010003C91FC0131832083CE01845B9F4FDC0116
:103020008D919C910197F1F79E01245B3F4FF9012F
:1030300091838083000028C06BA97CA98DA99EA9DB
:103040000E94B628C65DDE4F688379838A839B839E
:10305000CA52D140C65DDE4FF881CA52D140FBAFA3
:10306000CE01825B9F4F2BADDC012C93CE01825BA6
:103070009F4FFC018081282F2A95F1F7CE01825BBA
:103080009F4FDC012C930000CE0187569F4FFC011F
:1030900080818170482F63E080E00E946E01CE0144
:1030A00087569F4FDC018C9186958170482F64E094
:1030B00080E00E946E01CE0187569F4FFC01808107
:1030C000869586958170482F65E080E00E946E01AC
:1030D000CE0187569F4FDC018C918695869586950B
:1030E0008170482F66E080E00E946E0180E090E0F1
:1030F000A0E8BFE389A39AA3ABA3BCA320E030E080
:103100004AE755E469A17AA18BA19CA10E945F299D
:10311000C25DDE4F688379838A839B83CE52D14020
:10312000C25DDE4F88819981AA81BB81CE52D14098
:103130008DA39EA3AFA3B8A720E030E040E85FE3F3
:103140006DA17EA18FA198A50E943F2888232CF411
:1031500081E090E09AA789A775C020E03FEF4FE794
:1031600057E46DA17EA18FA198A50E945A29181637
:103170000CF052C020E030E040E251E469A17AA1B5
:103180008BA19CA10E945F29CE5CDE4F688379836E
:103190008A839B83C253D140CE5CDE4F8881998164
:1031A000AA81BB81C253D140C256DF4F8883998325
:1031B000AA83BB83CE59D040C256DF4F6881798144
:1031C0008A819B81CE59D0400E94B628CA5CDE4FCE
:1031D000688379838A839B83C653D140CA5CDE4F60
:1031E000A881B981C653D140BAA7A9A710C080E968
:1031F00091E09CA78BA78BA59CA50197F1F79CA7B5
:103200008BA7000089A59AA501979AA789A789A5E8
:103210009AA5892B61F721C06DA17EA18FA198A5E8
:103220000E94B628C65CDE4F688379838A839B83BD
:10323000CA53D140C65CDE4FE881F981CA53D14000
:10324000FAA7E9A789A59AA59EA78DA78DA59EA5F2
:103250000197F1F79EA78DA7000040E062E080E0B3
:103260000E946E0180E090E0A0E8BFE389839A832A
:10327000AB83BC832BEA3AEA4AEA50E469817A815B
:103280008B819C810E945F29C25CDE4F68837983B9
:103290008A839B83CE53D140C25CDE4F8881998163
:1032A000AA81BB81CE53D1408D839E83AF83B887E3
:1032B00020E030E040E850E469817A818B819C8194
:1032C0000E945F29CE5BDE4F688379838A839B836C
:1032D000C254D140CE5BDE4F88819981AA81BB81E7
:1032E000C254D14089879A87AB87BC8720E030E001
:1032F00040E85FE36D817E818F8198850E943F2841
:1033000088231CF481E08D871DC120E03FEF4FE74B
:1033100057E469857A858B859C850E945A29181601
:103320000CF0CEC020E030E04AE754E469817A81B5
:103330008B819C810E944428CA5BDE4F688379831D
:103340008A839B83C654D140CA5BDE4F88819981B2
:10335000AA81BB81C654D1408E879F87A88BB98B29
:1033600020E030E04AE755E46E857F8588899989B9
:103370000E945F29C65BDE4F688379838A839B83C3
:10338000CA54D140C65BDE4F88819981AA81BB8136
:10339000CA54D1408A8B9B8BAC8BBD8B20E030E034
:1033A00040E85FE36A897B898C899D890E943F2878
:1033B00088232CF481E090E09F8B8E8B75C020E0F9
:1033C0003FEF4FE757E46A897B898C899D890E948A
:1033D0005A2918160CF052C020E030E040E251E4C7
:1033E0006E857F85888999890E945F29C25BDE4F3F
:1033F000688379838A839B83CE54D140C25BDE4F3E
:1034000088819981AA81BB81CE54D140C656DF4FB5
:1034100088839983AA83BB83CA59D040C656DF4F9D
:10342000688179818A819B81CA59D0400E94B628DF
:10343000CE5ADE4F688379838A839B83C255D140FD
:10344000CE5ADE4FA881B981C255D140BF8BAE8B19
:1034500010C080E991E0998F888F888D998D0197B0
:10346000F1F7998F888F00008E899F8901979F8B34
:103470008E8B8E899F89892B61F721C06A897B8910
:103480008C899D890E94B628CA5ADE4F6883798349
:103490008A839B83C655D140CA5ADE4FE881F981A1
:1034A000C655D140FF8BEE8B8E899F899B8F8A8F6B
:1034B0008A8D9B8D0197F1F79B8F8A8F000049C001
:1034C00020E030E04FE753E46D817E818F81988565
:1034D0000E945A29181614F569857A858B859C8572
:1034E0000E94B628C65ADE4F688379838A839B83FD
:1034F000CA55D140C65ADE4F88819981CA55D140FC
:103500009D8F8C8F8C8D9D8D9F8F8E8F8E8D9F8D9F
:103510000197F1F79F8F8E8F00001BC06D817E8118
:103520008F8198850E94B628C25ADE4F68837983BE
:103530008A839B83CE55D140C25ADE4F9881CE55A7
:10354000D1409D878D8588A388A18A95F1F788A3AE
:1035500000000000CF59DE4F0FB6F894DEBF0FBE5B
:10356000CDBFDF91CF911F910F910895CF93DF933E
:1035700000D00F92CDB7DEB79B838A8319820EC02D
:103580008981882F90E02A813B81820F931FFC0163
:1035900080810E94D11089818F5F89838981882FE2
:1035A00090E02A813B81820F931FFC018081882358
:1035B00039F7000000000F900F900F90DF91CF912E
:1035C0000895CF93DF93CDB7DEB762970FB6F89427
:1035D000DEBF0FBECDBF9A8B898B89899A894AE05D
:1035E00050E09E012F5F3F4FB9010E94CC29CE01D0
:1035F00001960E94B61A000062960FB6F894DEBFDC
:103600000FBECDBFDF91CF910895CF93DF9300D050
:103610000F92CDB7DEB78A836B838A81882F90E0C3
:1036200083309105C9F084309105D4F4823091053E
:1036300079F083309105A4F4009719F0019721F0F7
:103640000FC08B8189830CC08B81805C898308C00B
:103650008B81805F898304C08B81805C89830000BB
:10366000898180680E94BA0400000F900F900F902B
:10367000DF91CF910895CF93DF9300D000D0CDB7E5
:10368000DEB789836A835C834B836A8189810E9468
:10369000051B8B819C810E94B61A00000F900F9031
:1036A0000F900F90DF91CF910895CF93DF93CDB717
:1036B000DEB781E00E94BA040000DF91CF91089547
:1036C000CF93DF9300D0CDB7DEB740E064E081E078
:1036D0000E94490040E065E081E00E94490040E02E
:1036E00066E081E00E94490040E067E081E00E94DE
:1036F000490040E062E083E00E94490040E063E06E
:1037000083E00E94490040E064E083E00E944900B9
:1037100040E065E081E00E944900198230C0898163
:103720008C5F41E0682F81E00E94490089818C5FB5
:1037300040E0682F81E00E946E011A8213C08A81E6
:103740008E5F682F83E00E949A02882341F489816A
:10375000982F990F990F8A81890F8F5F14C08A81E2
:103760008F5F8A838A81843050F389818C5F40E047
:10377000682F81E00E94490089818F5F8983898158
:10378000843068F2CACF0F900F90DF91CF910895E7
:10379000CF93DF93CDB7DEB70E9454030000DF91D3
:1037A000CF9108950F931F93CF93DF93CDB7DEB7DB
:1037B000CA5AD1090FB6F894DEBF0FBECDBF80E65E
:1037C00090E00E94B61A80E090E8ABE3B5E489AFE0
:1037D0009AAFABAFBCAF20E030E04AE755E469AD4B
:1037E0007AAD8BAD9CAD0E945F296F966CAF7DAFBB
:1037F0008EAF9FAF6F97CE01CD966F962CAD3DAD3E
:103800004EAD5FAD6F97DC012D933D934D935C936F
:10381000139720E030E040E85FE3CE01CD96FC0155
:1038200060817181828193810E943F2888234CF4BA
:10383000CE018F5B9F4F21E030E0DC012D933C9364
:103840008CC020E03FEF4FE757E4CE01CD96FC015E
:1038500060817181828193810E945A2918160CF02F
:1038600063C020E030E040E251E469AD7AAD8BAD59
:103870009CAD0E945F29A3966CAF7DAF8EAF9FAFCA
:10388000A397A3962CAD3DAD4EAD5FADA3976B96C0
:103890002CAF3DAF4EAF5FAF6B978E010F5B1F4FED
:1038A0006B966CAD7DAD8EAD9FAD6B970E94B628CB
:1038B000A7966CAF7DAF8EAF9FAFA797A596EEADE5
:1038C000FFADA597D801ED93FC9325C0CE018D5B8C
:1038D0009F4F20E931E0DC012D933C93CE018D5BBD
:1038E0009F4FFC01808191810197F1F79E012D5B33
:1038F0003F4FD9018D939C930000CE018F5B9F4F6A
:103900009E012F5B3F4FF901208131812150310908
:10391000DC012D933C93CE018F5B9F4FFC01808196
:103920009181892B99F634C08E010F5B1F4FCE0118
:10393000CD96DC016D917D918D919C910E94B62870
:10394000AB966CAF7DAF8EAF9FAFAB97A9962EAD08
:103950003FADA997F80131832083CE018B5B9F4F48
:103960009E012F5B3F4FD9012D913C91FC0131838A
:103970002083CE018B5B9F4FDC018D919C91019741
:10398000F1F79E012B5B3F4FF9019183808300008B
:103990000E94551B80E790E00E94B61A60E081E02B
:1039A0000E94051B8BE790E00E94B61A80E090E829
:1039B000ABE3B5E48BA79CA7ADA7BEA720E030E0A2
:1039C0004AE755E46BA57CA58DA59EA50E945F29BD
:1039D000AF966CAF7DAF8EAF9FAFAF97AF962CAD6C
:1039E0003DAD4EAD5FADAF972FA738AB49AB5AABEE
:1039F00020E030E040E85FE36FA578A989A99AA9A3
:103A00000E943F2888232CF481E090E09CAB8BAB94
:103A100065C020E03FEF4FE757E46FA578A989A97B
:103A20009AA90E945A2918160CF046C020E030E0EE
:103A300040E251E46BA57CA58DA59EA50E945F295F
:103A4000E3966CAF7DAF8EAF9FAFE397E3968CADFF
:103A50009DADAEADBFADE39767968CAF9DAFAEAFFA
:103A6000BFAF679767966CAD7DAD8EAD9FAD679725
:103A70000E94B628E7966CAF7DAF8EAF9FAFE797F9
:103A8000E596AEADBFADE597BCABABAB10C080E982
:103A900091E09EAB8DAB8DA99EA90197F1F79EABEE
:103AA0008DAB00008BA99CA901979CAB8BAB8BA91C
:103AB0009CA9892B61F71DC06FA578A989A99AA92E
:103AC0000E94B628EB966CAF7DAF8EAF9FAFEB97A1
:103AD000E996EEADFFADE997FCABEBAB8BA99CA9EA
:103AE00098AF8FAB8FA998AD0197F1F798AF8FABD7
:103AF00000000E94551B8AE890E00E94B61A60E020
:103B000081E00E94051B88E990E00E94B61A80E0DF
:103B100090E8ABE3B5E48D8F9E8FAF8FB8A320E024
:103B200030E04AE755E46D8D7E8D8F8D98A10E941F
:103B30005F29EF966CAF7DAF8EAF9FAFEF97EF969B
:103B40002CAD3DAD4EAD5FADEF9729A33AA34BA38E
:103B50005CA320E030E040E85FE369A17AA18BA19B
:103B60009CA10E943F2888232CF481E090E09EA332
:103B70008DA371C020E03FEF4FE757E469A17AA120
:103B80008BA19CA10E945A2918160CF04EC020E06F
:103B900030E040E251E46D8D7E8D8F8D98A10E94C2
:103BA0005F29C158DF4F688379838A839B83CF570E
:103BB000D040C158DF4F88819981AA81BB81CF57FE
:103BC000D04063968CAF9DAFAEAFBFAF63976396A7
:103BD0006CAD7DAD8EAD9FAD63970E94B628CD577D
:103BE000DF4F688379838A839B83C358D040CD5746
:103BF000DF4FA881B981C358D040BEA3ADA310C088
:103C000080E991E098A78FA38FA198A50197F1F77C
:103C100098A78FA300008DA19EA101979EA38DA3BD
:103C20008DA19EA1892B61F721C069A17AA18BA1E9
:103C30009CA10E94B628C957DF4F688379838A8385
:103C40009B83C758D040C957DF4FE881F981C758D7
:103C5000D040FEA3EDA38DA19EA19AA789A789A517
:103C60009AA50197F1F79AA789A700000E94551B12
:103C700085EA90E00E94B61A60E081E00E94051B90
:103C80008DEA90E00E94B61A80E090E8ABE3B5E4DC
:103C90008F87988BA98BBA8B20E030E04AE755E4F8
:103CA0006F85788989899A890E945F29C557DF4F76
:103CB000688379838A839B83CB58D040C557DF4F75
:103CC000288139814A815B81CB58D0402B8B3C8B3A
:103CD0004D8B5E8B20E030E040E85FE36B897C89B0
:103CE0008D899E890E943F2888232CF481E090E0F2
:103CF000988F8F8B71C020E03FEF4FE757E46B89BF
:103D00007C898D899E890E945A2918160CF04EC014
:103D100020E030E040E251E46F85788989899A8912
:103D20000E945F29C157DF4F688379838A839B8311
:103D3000CF58D040C157DF4F88819981AA81BB817C
:103D4000CF58D0402F968CAF9DAFAEAFBFAF2F975F
:103D50002F966CAD7DAD8EAD9FAD2F970E94B6288E
:103D6000CD56DF4F688379838A839B83C359D040C4
:103D7000CD56DF4FA881B981C359D040B88FAF8BE2
:103D800010C080E991E09A8F898F898D9A8D019773
:103D9000F1F79A8F898F00008F89988D0197988FFE
:103DA0008F8B8F89988D892B61F721C06B897C89D6
:103DB0008D899E890E94B628C956DF4F6883798312
:103DC0008A839B83C759D040C956DF4FE881F98168
:103DD000C759D040F88FEF8B8F89988D9C8F8B8F30
:103DE0008B8D9C8D0197F1F79C8F8B8F00000E942B
:103DF000551B8EEB90E00E94B61A80E090E8ABE392
:103E0000B5E489839A83AB83BC8320E030E04AE742
:103E100055E469817A818B819C810E945F29C55616
:103E2000DF4F688379838A839B83CB59D040C55603
:103E3000DF4F288139814A815B81CB59D0402D8366
:103E40003E834F83588720E030E040E85FE36D8198
:103E50007E818F8198850E943F2888232CF481E001
:103E600090E09A87898771C020E03FEF4FE757E4E1
:103E70006D817E818F8198850E945A2918160CF0D9
:103E80004EC020E030E040E251E469817A818B81CC
:103E90009C810E945F29C156DF4F688379838A83A2
:103EA0009B83CF59D040C156DF4F88819981AA8129
:103EB000BB81CF59D0402B968CAF9DAFAEAFBFAF7B
:103EC0002B972B966CAD7DAD8EAD9FAD2B970E9441
:103ED000B628CD55DF4F688379838A839B83C35A85
:103EE000D040CD55DF4FA881B981C35AD040BA87A1
:103EF000A98710C080E991E09C878B878B859C8582
:103F00000197F1F79C878B87000089859A85019737
:103F10009A87898789859A85892B61F721C06D8168
:103F20007E818F8198850E94B628C955DF4F6883AE
:103F300079838A839B83C75AD040C955DF4FE88174
:103F4000F981C75AD040FA87E98789859A859E8783
:103F50008D878D859E850197F1F79E878D8700005F
:103F60000E94BF1F0000C655DF4F0FB6F894DEBF9A
:103F70000FBECDBFDF91CF911F910F910895CF93C9
:103F8000DF93CDB7DEB70E94551B8DEC90E00E9409
:103F9000B61A80913801882F90E00E94E11A68E0FB
:103FA00080E00E94051B80ED90E00E94B61A80918F
:103FB0003901882F90E00E94E11A60E081E00E94C0
:103FC000051B83ED90E00E94B61A80913A01882F7C
:103FD00090E00E94E11A68E081E00E94051B86EDF6
:103FE00090E00E94B61A80913B01882F90E00E94D9
:103FF000E11A0000DF91CF9108950F931F93CF93A3
:10400000DF93CDB7DEB7CF5ED1090FB6F894DEBF30
:104010000FBECDBF0E94601B89838981873008F461
:10402000BEC00E94551B89ED90E00E94B61A80E048
:1040300090E8ABE3B5E48A839B83AC83BD8320E047
:1040400030E04AE755E46A817B818C819D810E9442
:104050005F29C058DF4F688379838A839B83C05868
:10406000D040C058DF4F88819981AA81BB81C05858
:10407000D0408E839F83A887B98720E030E040E856
:104080005FE36E817F81888599850E943F28882320
:104090002CF481E090E09B878A8771C020E03FEF9D
:1040A0004FE757E46E817F81888599850E945A2960
:1040B00018160CF04EC020E030E040E251E46A8176
:1040C0007B818C819D810E945F29CC57DF4F688363
:1040D00079838A839B83C458D040CC57DF4F888133
:1040E0009981AA81BB81C458D040A8968CAF9DAF5E
:1040F000AEAFBFAFA897A8966CAD7DAD8EAD9FADAE
:10410000A8970E94B628C857DF4F688379838A83AF
:104110009B83C858D040C857DF4FA881B981C85881
:10412000D040BB87AA8710C080E991E09D878C872B
:104130008C859D850197F1F79D878C8700008A8586
:104140009B8501979B878A878A859B85892B61F749
:1041500021C06E817F81888599850E94B628C457C9
:10416000DF4F688379838A839B83CC58D040C457C0
:10417000DF4FE881F981CC58D040FB87EA878A85F8
:104180009B859F878E878E859F850197F1F79F87F7
:104190008E8700000E94551B0E94BF1F8AC589811F
:1041A000882F90E08630910509F478C48730910516
:1041B0000CF07FC58530910509F469C386309105FF
:1041C0000CF077C58430910509F45CC28530910507
:1041D0000CF06FC58330910509F491C184309105CD
:1041E0000CF067C58130910521F0029709F4C4C035
:1041F00060C580E090E0AAEFB3E4888B998BAA8B2E
:10420000BB8B20E030E04AE755E4688979898A89E8
:104210009B890E945F29C057DF4F688379838A8317
:104220009B83C059D040C057DF4F88819981AA81B4
:10423000BB81C059D0408C8B9D8BAE8BBF8B20E057
:1042400030E040E85FE36C897D898E899F890E9418
:104250003F2888232CF481E090E0998F888F71C0EB
:1042600020E03FEF4FE757E46C897D898E899F8975
:104270000E945A2918160CF04EC020E030E040E2AF
:1042800051E4688979898A899B890E945F29CC5683
:10429000DF4F688379838A839B83C459D040CC568F
:1042A000DF4F88819981AA81BB81C459D040AC96E7
:1042B0008CAF9DAFAEAFBFAFAC97AC966CAD7DADE4
:1042C0008EAD9FADAC970E94B628C856DF4F68836D
:1042D00079838A839B83C859D040C856DF4FA88111
:1042E000B981C859D040B98FA88F10C080E991E03A
:1042F0009B8F8A8F8A8D9B8D0197F1F79B8F8A8F79
:104300000000888D998D0197998F888F888D998D60
:10431000892B61F721C06C897D898E899F890E94D4
:10432000B628C456DF4F688379838A839B83CC5930
:10433000D040C456DF4FE881F981CC59D040F98F85
:10434000E88F888D998D9D8F8C8F8C8D9D8D019799
:10435000F1F79D8F8C8F0000809138018F5F8093E3
:10436000380162E080E00E94051B80913801882FAF
:1043700090E00E94E11A9DC480E090E0AAEFB3E4CF
:104380008E8F9F8FA8A3B9A320E030E04AE755E4C1
:104390006E8D7F8D88A199A10E945F29C056DF4F45
:1043A000688379838A839B83C05AD040C056DF4F8D
:1043B00088819981AA81BB81C05AD0408AA39BA3DE
:1043C000ACA3BDA320E030E040E85FE36AA17BA19D
:1043D0008CA19DA10E943F2888232CF481E090E0CD
:1043E0009FA38EA371C020E03FEF4FE757E46AA17F
:1043F0007BA18CA19DA10E945A2918160CF04EC0D9
:1044000020E030E040E251E46E8D7F8D88A199A1DB
:104410000E945F29CC55DF4F688379838A839B8311
:10442000C45AD040CC55DF4F88819981AA81BB8185
:10443000C45AD040E0968CAF9DAFAEAFBFAFE0970F
:10444000E0966CAD7DAD8EAD9FADE0970E94B62835
:10445000C855DF4F688379838A839B83C85AD040CD
:10446000C855DF4FA881B981C85AD040BFA3AEA3B9
:1044700010C080E991E099A788A788A599A5019720
:10448000F1F799A788A700008EA19FA101979FA38C
:104490008EA38EA19FA1892B61F721C06AA17BA168
:1044A0008CA19DA10E94B628C455DF4F68837983F3
:1044B0008A839B83CC5AD040C455DF4FE881F98171
:1044C000CC5AD040FFA3EEA38EA19FA19BA78AA7A1
:1044D0008AA59BA50197F1F79BA78AA70000809169
:1044E00039018F5F809339016AE080E00E94051BEB
:1044F00080913901882F90E00E94E11ADAC380E0B0
:1045000090E0AAEFB3E48CA79DA7AEA7BFA720E0D9
:1045100030E04AE755E46CA57DA58EA59FA50E94D5
:104520005F29C055DF4F688379838A839B83C05B93
:10453000D040C055DF4F88819981AA81BB81C05B83
:10454000D04088AB99ABAAABBBAB20E030E040E8F1
:104550005FE368A979A98AA99BA90E943F288823BB
:104560002CF481E090E09DAB8CAB71C020E03FEF7C
:104570004FE757E468A979A98AA99BA90E945A29FB
:1045800018160CF04EC020E030E040E251E46CA57B
:104590007DA58EA59FA50E945F29CC54DF4F68831F
:1045A00079838A839B83C45BD040CC54DF4F88815E
:1045B0009981AA81BB81C45BD040E4968CAF9DAF4A
:1045C000AEAFBFAFE497E4966CAD7DAD8EAD9FAD61
:1045D000E4970E94B628C854DF4F688379838A83A2
:1045E0009B83C85BD040C854DF4FA881B981C85BAA
:1045F000D040BDABACAB10C080E991E09FAB8EABBF
:104600008EA99FA90197F1F79FAB8EAB00008CA9F3
:104610009DA901979DAB8CAB8CA99DA9892B61F7B6
:1046200021C068A979A98AA99BA90E94B628C45467
:10463000DF4F688379838A839B83CC5BD040C454EB
:10464000DF4FE881F981CC5BD040FDABECAB8CA9AE
:104650009DA999AF88AF88AD99AD0197F1F799AF52
:1046600088AF000080913A018F5F80933A0162E049
:1046700081E00E94051B80913A01882F90E00E9402
:10468000E11A17C380E090E0AAEFB3E48AAF9BAFD2
:10469000ACAFBDAF8E01025C1F4F20E030E04AE7B7
:1046A00055E46AAD7BAD8CAD9DAD0E945F29C054D1
:1046B000DF4F688379838A839B83C05CD040C0547A
:1046C000DF4F88819981AA81BB81C05CD040F8010D
:1046D00080839183A283B383CE01CE9620E030E025
:1046E00040E85FE3DC016D917D918D919C910E948A
:1046F0003F2888234CF4CE018E5B9F4F21E030E0B1
:10470000FC013183208398C0CE01CE9620E03FEF9C
:104710004FE757E4DC016D917D918D919C910E9452
:104720005A2918160CF06BC020E030E040E251E44A
:104730006AAD7BAD8CAD9DAD0E945F29CC53DF4F40
:10474000688379838A839B83C45CD040CC53DF4FDA
:1047500088819981AA81BB81C45CD040E8968CAFE6
:104760009DAFAEAFBFAFE8978E010E5B1F4FE896CF
:104770006CAD7DAD8EAD9FADE8970E94B628C85355
:10478000DF4F688379838A839B83C85CD040C8539A
:10479000DF4FE881F981C85CD040D801ED93FC93EC
:1047A00025C0CE018C5B9F4F20E931E0DC012D93C9
:1047B0003C93CE018C5B9F4FFC01808191810197DE
:1047C000F1F79E012C5B3F4FD9018D939C93000024
:1047D000CE018E5B9F4F9E012E5B3F4FF9012081E2
:1047E000318121503109DC012D933C93CE018E5B48
:1047F0009F4FFC0180819181892B99F638C08E01F1
:104800000E5B1F4FCE01CE96DC016D917D918D9197
:104810009C910E94B628C453DF4F688379838A83B2
:104820009B83CC5CD040C453DF4F88819981CC5CA2
:10483000D040F80191838083CE018A5B9F4F9E0117
:104840002E5B3F4FD9012D913C91FC013183208398
:10485000CE018A5B9F4FDC018D919C910197F1F70E
:104860009E012A5B3F4FF901918380830000809174
:104870003B018F5F80933B016AE081E00E94051B52
:1048800080913B01882F90E00E94E11A12C29E01A4
:10489000285B3F4F80E090E0AAEFB3E4F90180830A
:1048A0009183A283B3838E01045B1F4FCE01885B8B
:1048B0009F4F20E030E04AE755E4DC016D917D91A7
:1048C0008D919C910E945F29C053DF4F688379834B
:1048D0008A839B83C05DD040C053DF4F888199811C
:1048E000AA81BB81C05DD040F80180839183A283FF
:1048F000B383CE01845B9F4F20E030E040E85FE36C
:10490000DC016D917D918D919C910E943F288823BF
:104910004CF4CE01805B9F4F21E030E0FC013183FD
:1049200020839EC0CE01845B9F4F20E03FEF4FE786
:1049300057E4DC016D917D918D919C910E945A29E3
:1049400018160CF06FC0CE01885B9F4F20E030E05E
:1049500040E251E4FC0160817181828193810E9477
:104960005F29CC52DF4F688379838A839B83C45D40
:10497000D040CC52DF4F88819981AA81BB81C45D30
:10498000D040EC968CAF9DAFAEAFBFAFEC978E0131
:10499000005B1F4FEC966CAD7DAD8EAD9FADEC977F
:1049A0000E94B628C852DF4F688379838A839B832D
:1049B000C85DD040C852DF4FE881F981C85DD04062
:1049C000D801ED93FC9325C0CE018E5A9F4F20E96C
:1049D00031E0DC012D933C93CE018E5A9F4FFC01B8
:1049E000808191810197F1F79E012E5A3F4FD901A5
:1049F0008D939C930000CE01805B9F4F9E01205BB6
:104A00003F4FF9012081318121503109DC012D9383
:104A10003C93CE01805B9F4FFC0180819181892B6B
:104A200099F639C08E01005B1F4FCE01845B9F4F0A
:104A3000DC016D917D918D919C910E94B628C452AC
:104A4000DF4F688379838A839B83CC5DD040C452D7
:104A5000DF4F88819981CC5DD040F80191838083BC
:104A6000CE018C5A9F4F9E01205B3F4FD9012D9163
:104A70003C91FC0131832083CE018C5A9F4FDC0195
:104A80008D919C910197F1F79E012C5A3F4FF901AE
:104A90009183808300000E9466260BC19E012A5AE2
:104AA0003F4F80E090E0AAEFB3E4F9018083918367
:104AB000A283B3838E01065A1F4FCE018A5A9F4F9D
:104AC00020E030E04AE755E4DC016D917D918D9165
:104AD0009C910E945F29C052DF4F688379838A834B
:104AE0009B83C05ED040C052DF4F88819981AA81EC
:104AF000BB81C05ED040F80180839183A283B383E1
:104B0000CE01865A9F4F20E030E040E85FE3DC01B1
:104B10006D917D918D919C910E943F2888234CF44A
:104B2000CE01825A9F4F21E030E0FC013183208387
:104B3000A2C0CE01865A9F4F20E03FEF4FE757E4D7
:104B4000DC016D917D918D919C910E945A291816DE
:104B50000CF073C0CE018A5A9F4F20E030E040E253
:104B600051E4FC0160817181828193810E945F29FF
:104B7000CC51DF4F688379838A839B83C45ED040A6
:104B8000CC51DF4F88819981AA81BB81C45ED0401E
:104B9000C458DF4F88839983AA83BB83CC57D04006
:104BA0008E01025A1F4FC458DF4F688179818A8174
:104BB0009B81CC57D0400E94B628C851DF4F6883F4
:104BC00079838A839B83C85ED040C851DF4FE881D8
:104BD000F981C85ED040D801ED93FC9325C0CE0189
:104BE000805A9F4F20E931E0DC012D933C93CE01A8
:104BF000805A9F4FFC01808191810197F1F79E01BE
:104C0000205A3F4FD9018D939C930000CE01825AC8
:104C10009F4F9E01225A3F4FF9012081318121503F
:104C20003109DC012D933C93CE01825A9F4FFC0148
:104C300080819181892B99F639C08E01025A1F4FCC
:104C4000CE01865A9F4FDC016D917D918D919C9193
:104C50000E94B628C451DF4F688379838A839B837F
:104C6000CC5ED040C451DF4F88819981CC5ED0406A
:104C7000F80191838083CE018E599F4F9E01225A65
:104C80003F4FD9012D913C91FC0131832083CE010E
:104C90008E599F4FDC018D919C910197F1F79E01F8
:104CA0002E593F4FF9019183808300000E947E2698
:104CB00000000000C151DF4F0FB6F894DEBF0FBEF9
:104CC000CDBFDF91CF911F910F910895CF93DF93C7
:104CD000CDB7DEB710923B0180913B0180933A0142
:104CE00080913A0180933901809139018093380194
:104CF0000E94BF1F0000DF91CF910895CF93DF93F3
:104D0000CDB7DEB7C454D1090FB6F894DEBF0FBEDD
:104D1000CDBF90913801809139018917D8F49091D5
:104D2000380180913A018917A8F490913801809157
:104D30003B01891778F40E94551B87EE90E00E9492
:104D4000B61A60E081E00E94051B87EF90E00E94A8
:104D5000B61A50C090913901809138018917D8F462
:104D60009091390180913A018917A8F49091390105
:104D700080913B01891778F40E94551B88E091E0EF
:104D80000E94B61A60E081E00E94051B87EF90E068
:104D90000E94B61A2FC090913A018091380189176C
:104DA000D8F490913A01809139018917A8F4909133
:104DB0003A0180913B01891778F40E94551B88E1E4
:104DC00091E00E94B61A60E081E00E94051B87EF27
:104DD00090E00E94B61A0EC00E94551B88E291E036
:104DE0000E94B61A60E081E00E94051B87EF90E008
:104DF0000E94B61A0E943A0380E090E8ABE3B5E463
:104E00008F87988BA98BBA8B20E030E04AE755E476
:104E10006F85788989899A890E945F296DA37EA30D
:104E20008FA398A78DA19EA1AFA1B8A58B8B9C8BBA
:104E3000AD8BBE8B20E030E040E85FE36B897C897E
:104E40008D899E890E943F2888232CF481E090E080
:104E5000988F8F8B54C020E03FEF4FE757E46B896A
:104E60007C898D899E890E945A291816D4F520E0E4
:104E700030E040E251E46F85788989899A890E94FF
:104E80005F2969A77AA78BA79CA789A59AA5ABA537
:104E9000BCA589A39AA3ABA3BCA369A17AA18BA14A
:104EA0009CA10E94B6286DA77EA78FA798ABADA541
:104EB000BEA5B88FAF8B10C080E991E09A8F898F23
:104EC000898D9A8D0197F1F79A8F898F00008F89CC
:104ED000988D0197988F8F8B8F89988D892B61F78B
:104EE00019C06B897C898D899E890E94B62869AB1F
:104EF0007AAB8BAB9CAB89A99AA9988F8F8B8F8942
:104F0000988D9C8F8B8F8B8D9C8D0197F1F79C8F4B
:104F10008B8F00000E9447030E94551B8EEB90E090
:104F20000E94B61A80E090E8ABE3B5E489839A83E7
:104F3000AB83BC8320E030E04AE755E469817A81A5
:104F40008B819C810E945F296DAB7EAB8FAB98AF4C
:104F50008DA99EA9AFA9B8AD8D839E83AF83B88775
:104F600020E030E040E85FE36D817E818F819885AD
:104F70000E943F2888232CF481E090E09A8789875B
:104F80005BC020E03FEF4FE757E46D817E818F816A
:104F900098850E945A2918160CF03CC020E030E099
:104FA00040E251E469817A818B819C810E945F2972
:104FB00069AF7AAF8BAF9CAF89AD9AADABADBCADED
:104FC0008D8F9E8FAF8FB8A36D8D7E8D8F8D98A1A5
:104FD0000E94B62821966CAF7DAF8EAF9FAF219710
:104FE000ADADBEADBA87A98710C080E991E09C87BE
:104FF0008B878B859C850197F1F79C878B870000B9
:1050000089859A8501979A87898789859A85892BC9
:1050100061F71DC06D817E818F8198850E94B628C1
:1050200025966CAF7DAF8EAF9FAF259723968EAD43
:105030009FAD23979A87898789859A859E878D87D3
:105040008D859E850197F1F79E878D8700000E94D0
:1050500066260000CC5BDF4F0FB6F894DEBF0FBEB4
:10506000CDBFDF91CF910895CF93DF93CDB7DEB75A
:105070000E94C81B0E94D21B0E94FD1FFDCF0E94F0
:10508000E52808F481E008950E9458280C9420290E
:105090000E94192958F00E94122940F029F45F3F1C
:1050A00029F00C94092951110C9454290C940F29BE
:1050B0000E94312968F39923B1F3552391F3951B8D
:1050C000550BBB27AA2762177307840738F09F5F29
:1050D0005F4F220F331F441FAA1FA9F335D00E2E96
:1050E0003AF0E0E832D091505040E695001CCAF703
:1050F0002BD0FE2F29D0660F771F881FBB1F2617C6
:1051000037074807AB07B0E809F0BB0B802DBF019C
:10511000FF2793585F4F3AF09E3F510578F00C946B
:1051200009290C9454295F3FE4F3983ED4F3869503
:1051300077956795B795F7959F5FC9F7880F911D8C
:105140009695879597F90895E1E0660F771F881F78
:10515000BB1F621773078407BA0720F0621B730B2B
:10516000840BBA0BEE1F88F7E09508950E94392949
:1051700088F09F5798F0B92F9927B751B0F0E1F018
:10518000660F771F881F991F1AF0BA95C9F714C0C8
:10519000B13091F00E945329B1E008950C94532945
:1051A000672F782F8827B85F39F0B93FCCF3869501
:1051B00077956795B395D9F73EF49095809570955E
:1051C00061957F4F8F4F9F4F0895990F0008550F9E
:1051D000AA0BE0E8FEEF16161706E807F907C0F07D
:1051E00012161306E407F50798F0621B730B840B85
:1051F000950B39F40A2661F0232B242B252B21F45F
:1052000008950A2609F4A140A6958FEF811D811DFE
:10521000089597F99F6780E870E060E008959FEF38
:1052200080EC089500240A9416161706180609063D
:10523000089500240A94121613061406050608950C
:10524000092E0394000C11F4882352F0BB0F40F494
:10525000BF2B11F460FF04C06F5F7F4F8F4F9F4FD4
:10526000089557FD9058440F551F59F05F3F71F056
:105270004795880F97FB991F61F09F3F79F08795BD
:105280000895121613061406551FF2CF4695F1DF46
:1052900008C0161617061806991FF1CF86957105D6
:1052A000610508940895E894BB2766277727CB010A
:1052B00097F908950E94E52808F48FEF08950E9459
:1052C00072290C9420290E94122938F00E94192971
:1052D00020F0952311F00C9409290C940F29112426
:1052E0000C9454290E94312970F3959FC1F3950FB6
:1052F00050E0551F629FF001729FBB27F00DB11D5A
:10530000639FAA27F00DB11DAA1F649F6627B00DE9
:10531000A11D661F829F2227B00DA11D621F739FD2
:10532000B00DA11D621F839FA00D611D221F749FE0
:105330003327A00D611D231F849F600D211D822F27
:10534000762F6A2F11249F5750409AF0F1F088234E
:105350004AF0EE0FFF1FBB1F661F771F881F91507B
:105360005040A9F79E3F510580F00C9409290C94F8
:1053700054295F3FE4F3983ED4F38695779567957B
:10538000B795F795E7959F5FC1F7FE2B880F911DA5
:105390009695879597F908954532510520F4423046
:1053A00010F00C94D729FB011082CB010895BB2784
:1053B0004A3031F4992322F4BDE2909581959F4FB4
:1053C0000C94E329BB27FB015527AA27880F991FB7
:1053D000AA1FA41710F0A41B83955051B9F7A05D24
:1053E000AA3308F0A95DA193009779F7B111B193A1
:1053F0001192CB010C94FC29DC01FC01672F719107
:105400007723E1F7329704C07C916D9370836291AA
:0C541000AE17BF07C8F30895F894FFCF53
:10541C0020566F74696E67204D616368696E650014
:10542C00202020202020736F6D65002020496E7392
:10543C007472756374696F6E73003129412020207A
:10544C0020202032294220003329432020202020F4
:10545C002034294400352952657365740036294778
:10546C006574207468652057696E6E6572004C6FA8
:10547C006164696E672E2E2E2E2E2E2E00413D005D
:10548C00423D00433D00443D0020204552524F52C6
:10549C0020494E5055540041206973207468652092
:1054AC0057696E6E657200636F6E67726174756CAE
:1054BC006174696F6E732100422069732074686592
:1054CC002057696E6E65720043206973207468659D
:1054DC002057696E6E65720044206973207468658C
:0854EC002057696E6E65720025
:00000001FF
